:03000000020250A9
:10001B00C28EF55585F03B85013E85003F853C0141
:10002B00853D0020002CC292C290D2927940E77598
:10003B00F008A42539120100F4755408C333C2919A
:10004B009290D291D554F509B949E3D293D20002DB
:10005B000076C293E5392401F5395339075408B4B6
:10006B0008C4C292D290D29202003785013C85001F
:10007B003DE555853BF0853E01853F00758B00D2F4
:02008B008E32B3
:0301000004832253
:100103000000000000000000001C36636363361C1F
:080123000063361C1C36636307
:10025000758921758D00758B00C200D2AFD2ABD2EB
:100260008E12066012063830A33B30A44380F81289
:10027000064C30A70830A32D30A43580F8758C00CB
:10028000758A007B05C28DD28C308DFDC28DDBF965
:10029000C28C12041D1203470202A03001CF80DB82
:1002A0003001CC80BFC2021205B63002EE0202BBA2
:1002B000C2021206073002E30202BB2001047A04E4
:1002C00080027A01E54DB4000AE540B4006D8A4031
:1002D000020341B4010AE541B400608A41020341CE
:1002E000B4020AE542B400538A42020341B4030A4D
:1002F000E543B400468A43020341B4040AE544B42A
:1003000000398A44020341B4050AE545B4002C8A49
:1003100045020341B4060AE546B4001F8A460203BB
:1003200041B4070AE547B400128A47020341B40802
:100330000DE548B400058A4802034102029B02020F
:10034000611203470202A0E54025412542B403069D
:1003500012066D020408B40C0612066D020408E5CC
:100360004325442545B40306120680020408B40C54
:1003700006120680020408E54625472548B4030610
:10038000120693020408B40C06120693020408E550
:100390004025432546B403061206A6020408B40C01
:1003A000061206A6020408E54125442547B40306C3
:1003B0001206B9020408B40C061206B9020408E5D4
:1003C0004225452548B403061206CC020408B40CA5
:0703D000061206CC0204082E
:1003D700E54025442548B403061206DF020408B4A5
:1003E7000C061206DF020408E54225442546B4033D
:1003F700061206F2020408B40C061206F2020408FA
:100407002230A40280FBC2021206073002F3E54D38
:10041700B409EE02026175300275320112047020D0
:100427000446E5447005754401803D753008753212
:1004370001120470200431E540B4000575400180C5
:1004470027E542B40005754201801DE546B4000565
:100457007546018013E548B40005754801800978A1
:100467003F08E6B400FB760122E54025412542B569
:10047700301F753101E540B400067540010205B330
:10048700E541B400067541010205B3754201020555
:10049700B3E54325442545B5301F753102E543B41F
:1004A70000067543010205B3E544B400067544012F
:1004B7000205B37545010205B3E54625472548B54D
:1004C700301F753103E546B400067546010205B3D2
:1004D700E547B400067547010205B37548010205F3
:1004E700B3E54025432546B5301F753104E540B4D3
:1004F70000067540010205B3E543B40006754301E4
:100507000205B37546010205B3E54125442547B504
:10051700301F753105E541B400067541010205B389
:10052700E544B400067544010205B37547010205A9
:10053700B3E54225452548B5301F753106E542B478
:1005470000067542010205B3E545B400067545018D
:060557000205B375480126
:10055D000205B3E54025442548B5301F753107E543
:10056D0040B400067540010205B3E544B4000675BC
:10057D0044010205B37548010205B3E54225442542
:10058D0046B5301F753108E542B4000675420102CB
:10059D0005B3E544B400067544010205B375460183
:1005AD000205B3C20422D204221207057471120788
:1005BD001512073D12072B12070CF4F521603A3086
:1005CD000805754D008030300905754D01802830C6
:1005DD000A05754D028020300B05754D03801830CE
:1005ED000C05754D048010300D05754D05800830D6
:1005FD000E07754D068000D2022212070574731284
:10060D00071512073D12072B12070CF4F521601A7E
:10061D00300805754D078010300905754D088008A7
:10062D00300A07754D098000D20222C201C2AF7493
:10063D00607F08C2A2139290D2A2DFF7D2AF22D26E
:10064D0001C2AF74DA7F08C2A2139290D2A2DFF773
:10065D00D2AF22C2AF7848760018B83FFAD2AF2297
:10066D007543007544007545007546007547007566
:10067D0048002275400075410075420075460075B1
:10068D0047007548002275400075410075420075A0
:10069D004300754400754500227541007542007593
:1006AD00440075450075470075480022754000757A
:0E06BD00420075430075450075460075480003
:1006CB002275400075410075430075440075460066
:1006DB007547002275410075420075430075450052
:1006EB007546007547002275400075410075430043
:1006FB0075450075470075480022D2A5C2A6C2A554
:10070B0022C2A5C2A6D2A5D2A6227C08C2A533922C
:10071B00A6D2A5DCF7C2A5D2A6D2A5A2A6C2A522B7
:10072B00C2A6D2A5C2A5D2A622D2A6D2A5C2A5D2B6
:10073B00A5227C08C2A5D2A5A2A633DCF7C2A522AE
:00000001FF
